{
  "_format": "hh-sol-artifact-1",
  "contractName": "MultiSig",
  "sourceName": "contracts/MultiSig.sol",
  "abi": [
    {
      "inputs": [
        {
          "internalType": "uint8",
          "name": "_qorum",
          "type": "uint8"
        },
        {
          "internalType": "address[]",
          "name": "_signers",
          "type": "address[]"
        }
      ],
      "stateMutability": "nonpayable",
      "type": "constructor"
    },
    {
      "inputs": [],
      "name": "CannotSignTransactionTwice",
      "type": "error"
    },
    {
      "inputs": [],
      "name": "InsufficientBalance",
      "type": "error"
    },
    {
      "inputs": [],
      "name": "InvalidTransaction",
      "type": "error"
    },
    {
      "inputs": [],
      "name": "NotAValidQorum",
      "type": "error"
    },
    {
      "inputs": [],
      "name": "NotAValidSigner",
      "type": "error"
    },
    {
      "inputs": [],
      "name": "TransactionCompleted",
      "type": "error"
    },
    {
      "inputs": [],
      "name": "ZeroAddressDetected",
      "type": "error"
    },
    {
      "inputs": [
        {
          "internalType": "uint8",
          "name": "_qorumId",
          "type": "uint8"
        }
      ],
      "name": "approveQorumUpdate",
      "outputs": [],
      "stateMutability": "nonpayable",
      "type": "function"
    },
    {
      "inputs": [
        {
          "internalType": "uint8",
          "name": "_trxId",
          "type": "uint8"
        }
      ],
      "name": "approveTransaction",
      "outputs": [],
      "stateMutability": "nonpayable",
      "type": "function"
    },
    {
      "inputs": [],
      "name": "noValidSigners",
      "outputs": [
        {
          "internalType": "uint8",
          "name": "",
          "type": "uint8"
        }
      ],
      "stateMutability": "view",
      "type": "function"
    },
    {
      "inputs": [],
      "name": "qorum",
      "outputs": [
        {
          "internalType": "uint8",
          "name": "",
          "type": "uint8"
        }
      ],
      "stateMutability": "view",
      "type": "function"
    },
    {
      "inputs": [],
      "name": "qorumId",
      "outputs": [
        {
          "internalType": "uint8",
          "name": "",
          "type": "uint8"
        }
      ],
      "stateMutability": "view",
      "type": "function"
    },
    {
      "inputs": [
        {
          "internalType": "uint8",
          "name": "",
          "type": "uint8"
        }
      ],
      "name": "qorumUpdate",
      "outputs": [
        {
          "internalType": "uint8",
          "name": "proposedQorum",
          "type": "uint8"
        },
        {
          "internalType": "uint8",
          "name": "numberOfApproval",
          "type": "uint8"
        },
        {
          "internalType": "bool",
          "name": "isCompleted",
          "type": "bool"
        }
      ],
      "stateMutability": "view",
      "type": "function"
    },
    {
      "inputs": [
        {
          "internalType": "uint256",
          "name": "",
          "type": "uint256"
        }
      ],
      "name": "signers",
      "outputs": [
        {
          "internalType": "address",
          "name": "",
          "type": "address"
        }
      ],
      "stateMutability": "view",
      "type": "function"
    },
    {
      "inputs": [
        {
          "internalType": "uint8",
          "name": "",
          "type": "uint8"
        }
      ],
      "name": "transactions",
      "outputs": [
        {
          "internalType": "uint8",
          "name": "id",
          "type": "uint8"
        },
        {
          "internalType": "address",
          "name": "recipient",
          "type": "address"
        },
        {
          "internalType": "uint256",
          "name": "amount",
          "type": "uint256"
        },
        {
          "internalType": "address",
          "name": "sender",
          "type": "address"
        },
        {
          "internalType": "address",
          "name": "tokenAddress",
          "type": "address"
        },
        {
          "internalType": "uint256",
          "name": "transactionTime",
          "type": "uint256"
        },
        {
          "internalType": "uint8",
          "name": "numberOfApproval",
          "type": "uint8"
        },
        {
          "internalType": "bool",
          "name": "isCompleted",
          "type": "bool"
        }
      ],
      "stateMutability": "view",
      "type": "function"
    },
    {
      "inputs": [
        {
          "internalType": "address",
          "name": "_recipient",
          "type": "address"
        },
        {
          "internalType": "uint256",
          "name": "_amount",
          "type": "uint256"
        },
        {
          "internalType": "address",
          "name": "_tokenAddress",
          "type": "address"
        }
      ],
      "name": "transfer",
      "outputs": [],
      "stateMutability": "nonpayable",
      "type": "function"
    },
    {
      "inputs": [],
      "name": "trxId",
      "outputs": [
        {
          "internalType": "uint8",
          "name": "",
          "type": "uint8"
        }
      ],
      "stateMutability": "view",
      "type": "function"
    },
    {
      "inputs": [
        {
          "internalType": "uint8",
          "name": "newQorum",
          "type": "uint8"
        }
      ],
      "name": "updateQorum",
      "outputs": [],
      "stateMutability": "nonpayable",
      "type": "function"
    },
    {
      "inputs": [
        {
          "internalType": "uint256",
          "name": "_amount",
          "type": "uint256"
        },
        {
          "internalType": "address",
          "name": "_tokenAddress",
          "type": "address"
        }
      ],
      "name": "withdraw",
      "outputs": [],
      "stateMutability": "nonpayable",
      "type": "function"
    }
  ],
  "bytecode": "0x60806040523480156200001157600080fd5b506040516200222e3803806200222e833981810160405281019062000037919062000665565b80600090805190602001906200004f9291906200038b565b5060005b81518160ff1610156200020b576000828260ff16815181106200007b576200007a620006cb565b5b60200260200101519050600073ffffffffffffffffffffffffffffffffffffffff168173ffffffffffffffffffffffffffffffffffffffff1603620000ec576040517f510fbaea00000000000000000000000000000000000000000000000000000000815260040160405180910390fd5b600360008273ffffffffffffffffffffffffffffffffffffffff1673ffffffffffffffffffffffffffffffffffffffff16815260200190815260200160002060009054906101000a900460ff16156200017c576040517f08c379a000000000000000000000000000000000000000000000000000000000815260040162000173906200075b565b60405180910390fd5b600160036000858560ff16815181106200019b576200019a620006cb565b5b602002602001015173ffffffffffffffffffffffffffffffffffffffff1673ffffffffffffffffffffffffffffffffffffffff16815260200190815260200160002060006101000a81548160ff0219169083151502179055505080806200020290620007ac565b91505062000053565b5080516001806101000a81548160ff021916908360ff160217905550600360003373ffffffffffffffffffffffffffffffffffffffff1673ffffffffffffffffffffffffffffffffffffffff16815260200190815260200160002060009054906101000a900460ff166200030a576001600360003373ffffffffffffffffffffffffffffffffffffffff1673ffffffffffffffffffffffffffffffffffffffff16815260200190815260200160002060006101000a81548160ff02191690831515021790555060018060018282829054906101000a900460ff16620002f19190620007da565b92506101000a81548160ff021916908360ff1602179055505b60008260ff1611158062000330575060018054906101000a900460ff1660ff168260ff16115b1562000368576040517fba7ecb4d00000000000000000000000000000000000000000000000000000000815260040160405180910390fd5b81600160006101000a81548160ff021916908360ff160217905550505062000816565b82805482825590600052602060002090810192821562000407579160200282015b82811115620004065782518260006101000a81548173ffffffffffffffffffffffffffffffffffffffff021916908373ffffffffffffffffffffffffffffffffffffffff16021790555091602001919060010190620003ac565b5b5090506200041691906200041a565b5090565b5b80821115620004355760008160009055506001016200041b565b5090565b6000604051905090565b600080fd5b600080fd5b600060ff82169050919050565b62000465816200044d565b81146200047157600080fd5b50565b60008151905062000485816200045a565b92915050565b600080fd5b6000601f19601f8301169050919050565b7f4e487b7100000000000000000000000000000000000000000000000000000000600052604160045260246000fd5b620004db8262000490565b810181811067ffffffffffffffff82111715620004fd57620004fc620004a1565b5b80604052505050565b60006200051262000439565b9050620005208282620004d0565b919050565b600067ffffffffffffffff821115620005435762000542620004a1565b5b602082029050602081019050919050565b600080fd5b600073ffffffffffffffffffffffffffffffffffffffff82169050919050565b6000620005868262000559565b9050919050565b620005988162000579565b8114620005a457600080fd5b50565b600081519050620005b8816200058d565b92915050565b6000620005d5620005cf8462000525565b62000506565b90508083825260208201905060208402830185811115620005fb57620005fa62000554565b5b835b81811015620006285780620006138882620005a7565b845260208401935050602081019050620005fd565b5050509392505050565b600082601f8301126200064a57620006496200048b565b5b81516200065c848260208601620005be565b91505092915050565b600080604083850312156200067f576200067e62000443565b5b60006200068f8582860162000474565b925050602083015167ffffffffffffffff811115620006b357620006b262000448565b5b620006c18582860162000632565b9150509250929050565b7f4e487b7100000000000000000000000000000000000000000000000000000000600052603260045260246000fd5b600082825260208201905092915050565b7f5369676e657220616c7265616479206578697374000000000000000000000000600082015250565b600062000743601483620006fa565b915062000750826200070b565b602082019050919050565b60006020820190508181036000830152620007768162000734565b9050919050565b7f4e487b7100000000000000000000000000000000000000000000000000000000600052601160045260246000fd5b6000620007b9826200044d565b915060ff8203620007cf57620007ce6200077d565b5b600182019050919050565b6000620007e7826200044d565b9150620007f4836200044d565b9250828201905060ff81111562000810576200080f6200077d565b5b92915050565b611a0880620008266000396000f3fe608060405234801561001057600080fd5b50600436106100b35760003560e01c806354d9d6141161007157806354d9d6141461018e578063558b6b23146101aa5780635f1e7c9e146101c85780638dc34b2f146101e4578063dbba0f011461021b578063dcd7fce414610237576100b3565b8062f714ce146100b85780630cc668c5146100d45780631f51143f146100f25780632079fb9a146101245780632b3eeff7146101545780634fe325de14610172575b600080fd5b6100d260048036038101906100cd91906115d4565b610255565b005b6100dc6105d6565b6040516100e99190611630565b60405180910390f35b61010c60048036038101906101079190611677565b6105e7565b60405161011b939291906116bf565b60405180910390f35b61013e600480360381019061013991906116f6565b610638565b60405161014b9190611732565b60405180910390f35b61015c610677565b6040516101699190611630565b60405180910390f35b61018c60048036038101906101879190611677565b61068a565b005b6101a860048036038101906101a39190611677565b610909565b005b6101b2610ce0565b6040516101bf9190611630565b60405180910390f35b6101e260048036038101906101dd9190611677565b610cf3565b005b6101fe60048036038101906101f99190611677565b611036565b60405161021298979695949392919061175c565b60405180910390f35b610235600480360381019061023091906117da565b611105565b005b61023f611528565b60405161024c9190611630565b60405180910390f35b600073ffffffffffffffffffffffffffffffffffffffff163373ffffffffffffffffffffffffffffffffffffffff16036102bb576040517f510fbaea00000000000000000000000000000000000000000000000000000000815260040160405180910390fd5b600082148061034257508073ffffffffffffffffffffffffffffffffffffffff166370a08231306040518263ffffffff1660e01b81526004016102fe9190611732565b602060405180830381865afa15801561031b573d6000803e3d6000fd5b505050506040513d601f19601f8201168201806040525081019061033f9190611842565b82115b15610379576040517ff4d678b800000000000000000000000000000000000000000000000000000000815260040160405180910390fd5b600060018060029054906101000a900460ff16610396919061189e565b90506000600660008360ff1660ff1681526020019081526020016000209050838160010181905550828160030160006101000a81548173ffffffffffffffffffffffffffffffffffffffff021916908373ffffffffffffffffffffffffffffffffffffffff160217905550308160020160006101000a81548173ffffffffffffffffffffffffffffffffffffffff021916908373ffffffffffffffffffffffffffffffffffffffff160217905550338160000160016101000a81548173ffffffffffffffffffffffffffffffffffffffff021916908373ffffffffffffffffffffffffffffffffffffffff16021790555042816004018190555060018160050160008282829054906101000a900460ff166104b1919061189e565b92506101000a81548160ff021916908360ff16021790555080600601339080600181540180825580915050600190039060005260206000200160009091909190916101000a81548173ffffffffffffffffffffffffffffffffffffffff021916908373ffffffffffffffffffffffffffffffffffffffff1602179055506001600460003373ffffffffffffffffffffffffffffffffffffffff1673ffffffffffffffffffffffffffffffffffffffff16815260200190815260200160002060008460ff16815260200190815260200160002060006101000a81548160ff02191690831515021790555060018060028282829054906101000a900460ff166105b8919061189e565b92506101000a81548160ff021916908360ff16021790555050505050565b60018054906101000a900460ff1681565b60026020528060005260406000206000915090508060000160009054906101000a900460ff16908060000160019054906101000a900460ff16908060000160029054906101000a900460ff16905083565b6000818154811061064857600080fd5b906000526020600020016000915054906101000a900473ffffffffffffffffffffffffffffffffffffffff1681565b600760009054906101000a900460ff1681565b600360003373ffffffffffffffffffffffffffffffffffffffff1673ffffffffffffffffffffffffffffffffffffffff16815260200190815260200160002060009054906101000a900460ff1661070d576040517f3466b99300000000000000000000000000000000000000000000000000000000815260040160405180910390fd5b60008160ff16111580610732575060018054906101000a900460ff1660ff168160ff16115b15610769576040517fba7ecb4d00000000000000000000000000000000000000000000000000000000815260040160405180910390fd5b60006001600760009054906101000a900460ff16610787919061189e565b90506000600260008360ff1660ff1681526020019081526020016000209050828160000160006101000a81548160ff021916908360ff16021790555060018160000160018282829054906101000a900460ff166107e4919061189e565b92506101000a81548160ff021916908360ff16021790555080600101339080600181540180825580915050600190039060005260206000200160009091909190916101000a81548173ffffffffffffffffffffffffffffffffffffffff021916908373ffffffffffffffffffffffffffffffffffffffff1602179055506001600560003373ffffffffffffffffffffffffffffffffffffffff1673ffffffffffffffffffffffffffffffffffffffff16815260200190815260200160002060008460ff16815260200190815260200160002060006101000a81548160ff0219169083151502179055506001600760008282829054906101000a900460ff166108ec919061189e565b92506101000a81548160ff021916908360ff160217905550505050565b60008160ff1603610946576040517f500a07ce00000000000000000000000000000000000000000000000000000000815260040160405180910390fd5b6000600660008360ff1660ff168152602001908152602001600020905080600101548160030160009054906101000a900473ffffffffffffffffffffffffffffffffffffffff1673ffffffffffffffffffffffffffffffffffffffff166370a08231306040518263ffffffff1660e01b81526004016109c59190611732565b602060405180830381865afa1580156109e2573d6000803e3d6000fd5b505050506040513d601f19601f82011682018060405250810190610a069190611842565b1015610a47576040517f08c379a0000000000000000000000000000000000000000000000000000000008152600401610a3e90611930565b60405180910390fd5b8060050160019054906101000a900460ff1615610a90576040517fccf17ebc00000000000000000000000000000000000000000000000000000000815260040160405180910390fd5b600460003373ffffffffffffffffffffffffffffffffffffffff1673ffffffffffffffffffffffffffffffffffffffff16815260200190815260200160002060008360ff16815260200190815260200160002060009054906101000a900460ff1615610b28576040517f1e5433fd00000000000000000000000000000000000000000000000000000000815260040160405180910390fd5b60018160050160008282829054906101000a900460ff16610b49919061189e565b92506101000a81548160ff021916908360ff16021790555080600601339080600181540180825580915050600190039060005260206000200160009091909190916101000a81548173ffffffffffffffffffffffffffffffffffffffff021916908373ffffffffffffffffffffffffffffffffffffffff160217905550600160009054906101000a900460ff1660ff168160050160009054906101000a900460ff1660ff1603610cdc5760018160050160016101000a81548160ff0219169083151502179055508060030160009054906101000a900473ffffffffffffffffffffffffffffffffffffffff1673ffffffffffffffffffffffffffffffffffffffff1663a9059cbb8260000160019054906101000a900473ffffffffffffffffffffffffffffffffffffffff1683600101546040518363ffffffff1660e01b8152600401610c97929190611950565b6020604051808303816000875af1158015610cb6573d6000803e3d6000fd5b505050506040513d601f19601f82011682018060405250810190610cda91906119a5565b505b5050565b600160029054906101000a900460ff1681565b60008160ff1603610d30576040517f500a07ce00000000000000000000000000000000000000000000000000000000815260040160405180910390fd5b600360003373ffffffffffffffffffffffffffffffffffffffff1673ffffffffffffffffffffffffffffffffffffffff16815260200190815260200160002060009054906101000a900460ff16610db3576040517f3466b99300000000000000000000000000000000000000000000000000000000815260040160405180910390fd5b6000600260008360ff1660ff16815260200190815260200160002090508060000160029054906101000a900460ff1615610e19576040517fccf17ebc00000000000000000000000000000000000000000000000000000000815260040160405180910390fd5b600560003373ffffffffffffffffffffffffffffffffffffffff1673ffffffffffffffffffffffffffffffffffffffff16815260200190815260200160002060008360ff16815260200190815260200160002060009054906101000a900460ff1615610eb1576040517f1e5433fd00000000000000000000000000000000000000000000000000000000815260040160405180910390fd5b60018160000160018282829054906101000a900460ff16610ed2919061189e565b92506101000a81548160ff021916908360ff16021790555080600101339080600181540180825580915050600190039060005260206000200160009091909190916101000a81548173ffffffffffffffffffffffffffffffffffffffff021916908373ffffffffffffffffffffffffffffffffffffffff1602179055506001600560003373ffffffffffffffffffffffffffffffffffffffff1673ffffffffffffffffffffffffffffffffffffffff16815260200190815260200160002060008460ff16815260200190815260200160002060006101000a81548160ff021916908315150217905550600160009054906101000a900460ff1660ff168160000160019054906101000a900460ff1660ff16106110325760018160000160026101000a81548160ff0219169083151502179055508060000160009054906101000a900460ff16600160006101000a81548160ff021916908360ff1602179055505b5050565b60066020528060005260406000206000915090508060000160009054906101000a900460ff16908060000160019054906101000a900473ffffffffffffffffffffffffffffffffffffffff16908060010154908060020160009054906101000a900473ffffffffffffffffffffffffffffffffffffffff16908060030160009054906101000a900473ffffffffffffffffffffffffffffffffffffffff16908060040154908060050160009054906101000a900460ff16908060050160019054906101000a900460ff16905088565b600073ffffffffffffffffffffffffffffffffffffffff168373ffffffffffffffffffffffffffffffffffffffff160361116b576040517f510fbaea00000000000000000000000000000000000000000000000000000000815260040160405180910390fd5b600360003373ffffffffffffffffffffffffffffffffffffffff1673ffffffffffffffffffffffffffffffffffffffff16815260200190815260200160002060009054906101000a900460ff166111ee576040517f3466b99300000000000000000000000000000000000000000000000000000000815260040160405180910390fd5b60008211158061127657508073ffffffffffffffffffffffffffffffffffffffff166370a08231306040518263ffffffff1660e01b81526004016112329190611732565b602060405180830381865afa15801561124f573d6000803e3d6000fd5b505050506040513d601f19601f820116820180604052508101906112739190611842565b82115b156112ad576040517ff4d678b800000000000000000000000000000000000000000000000000000000815260040160405180910390fd5b600060018060029054906101000a900460ff166112ca919061189e565b90506000600660008360ff1660ff1681526020019081526020016000209050838160010181905550828160030160006101000a81548173ffffffffffffffffffffffffffffffffffffffff021916908373ffffffffffffffffffffffffffffffffffffffff160217905550338160020160006101000a81548173ffffffffffffffffffffffffffffffffffffffff021916908373ffffffffffffffffffffffffffffffffffffffff160217905550848160000160016101000a81548173ffffffffffffffffffffffffffffffffffffffff021916908373ffffffffffffffffffffffffffffffffffffffff160217905550818160000160006101000a81548160ff021916908360ff16021790555042816004018190555060018160050160008282829054906101000a900460ff16611402919061189e565b92506101000a81548160ff021916908360ff16021790555080600601339080600181540180825580915050600190039060005260206000200160009091909190916101000a81548173ffffffffffffffffffffffffffffffffffffffff021916908373ffffffffffffffffffffffffffffffffffffffff1602179055506001600460003373ffffffffffffffffffffffffffffffffffffffff1673ffffffffffffffffffffffffffffffffffffffff16815260200190815260200160002060008460ff16815260200190815260200160002060006101000a81548160ff02191690831515021790555060018060028282829054906101000a900460ff16611509919061189e565b92506101000a81548160ff021916908360ff1602179055505050505050565b600160009054906101000a900460ff1681565b600080fd5b6000819050919050565b61155381611540565b811461155e57600080fd5b50565b6000813590506115708161154a565b92915050565b600073ffffffffffffffffffffffffffffffffffffffff82169050919050565b60006115a182611576565b9050919050565b6115b181611596565b81146115bc57600080fd5b50565b6000813590506115ce816115a8565b92915050565b600080604083850312156115eb576115ea61153b565b5b60006115f985828601611561565b925050602061160a858286016115bf565b9150509250929050565b600060ff82169050919050565b61162a81611614565b82525050565b60006020820190506116456000830184611621565b92915050565b61165481611614565b811461165f57600080fd5b50565b6000813590506116718161164b565b92915050565b60006020828403121561168d5761168c61153b565b5b600061169b84828501611662565b91505092915050565b60008115159050919050565b6116b9816116a4565b82525050565b60006060820190506116d46000830186611621565b6116e16020830185611621565b6116ee60408301846116b0565b949350505050565b60006020828403121561170c5761170b61153b565b5b600061171a84828501611561565b91505092915050565b61172c81611596565b82525050565b60006020820190506117476000830184611723565b92915050565b61175681611540565b82525050565b600061010082019050611772600083018b611621565b61177f602083018a611723565b61178c604083018961174d565b6117996060830188611723565b6117a66080830187611723565b6117b360a083018661174d565b6117c060c0830185611621565b6117cd60e08301846116b0565b9998505050505050505050565b6000806000606084860312156117f3576117f261153b565b5b6000611801868287016115bf565b935050602061181286828701611561565b9250506040611823868287016115bf565b9150509250925092565b60008151905061183c8161154a565b92915050565b6000602082840312156118585761185761153b565b5b60006118668482850161182d565b91505092915050565b7f4e487b7100000000000000000000000000000000000000000000000000000000600052601160045260246000fd5b60006118a982611614565b91506118b483611614565b9250828201905060ff8111156118cd576118cc61186f565b5b92915050565b600082825260208201905092915050565b7f496e73756666696369656e742046756e64730000000000000000000000000000600082015250565b600061191a6012836118d3565b9150611925826118e4565b602082019050919050565b600060208201905081810360008301526119498161190d565b9050919050565b60006040820190506119656000830185611723565b611972602083018461174d565b9392505050565b611982816116a4565b811461198d57600080fd5b50565b60008151905061199f81611979565b92915050565b6000602082840312156119bb576119ba61153b565b5b60006119c984828501611990565b9150509291505056fea2646970667358221220ea5a2e7d581eb075a313509d947fe8251d7a78373a768308d41dbcfedf36a82e64736f6c63430008180033",
  "linkReferences": {},
  "deployedLinkReferences": {}
}