{
  "_format": "hh-sol-artifact-1",
  "contractName": "MultiSig",
  "sourceName": "contracts/MultiSig.sol",
  "abi": [
    {
      "inputs": [
        {
          "internalType": "uint8",
          "name": "_qorum",
          "type": "uint8"
        },
        {
          "internalType": "address[]",
          "name": "_signers",
          "type": "address[]"
        }
      ],
      "stateMutability": "nonpayable",
      "type": "constructor"
    },
    {
      "inputs": [],
      "name": "CannotSignTransactionTwice",
      "type": "error"
    },
    {
      "inputs": [],
      "name": "InsufficientBalance",
      "type": "error"
    },
    {
      "inputs": [],
      "name": "InvalidTransaction",
      "type": "error"
    },
    {
      "inputs": [],
      "name": "NotAValidQorum",
      "type": "error"
    },
    {
      "inputs": [],
      "name": "NotAValidSigner",
      "type": "error"
    },
    {
      "inputs": [],
      "name": "ReentrancyGuardReentrantCall",
      "type": "error"
    },
    {
      "inputs": [],
      "name": "TransactionCompleted",
      "type": "error"
    },
    {
      "inputs": [],
      "name": "ZeroAddressDetected",
      "type": "error"
    },
    {
      "inputs": [
        {
          "internalType": "address",
          "name": "_newSigner",
          "type": "address"
        }
      ],
      "name": "addSigners",
      "outputs": [],
      "stateMutability": "nonpayable",
      "type": "function"
    },
    {
      "inputs": [
        {
          "internalType": "uint8",
          "name": "_trxId",
          "type": "uint8"
        }
      ],
      "name": "approveTransaction",
      "outputs": [],
      "stateMutability": "nonpayable",
      "type": "function"
    },
    {
      "inputs": [],
      "name": "noValidSigners",
      "outputs": [
        {
          "internalType": "uint8",
          "name": "",
          "type": "uint8"
        }
      ],
      "stateMutability": "view",
      "type": "function"
    },
    {
      "inputs": [],
      "name": "qorum",
      "outputs": [
        {
          "internalType": "uint8",
          "name": "",
          "type": "uint8"
        }
      ],
      "stateMutability": "view",
      "type": "function"
    },
    {
      "inputs": [
        {
          "internalType": "uint256",
          "name": "",
          "type": "uint256"
        }
      ],
      "name": "signers",
      "outputs": [
        {
          "internalType": "address",
          "name": "",
          "type": "address"
        }
      ],
      "stateMutability": "view",
      "type": "function"
    },
    {
      "inputs": [
        {
          "internalType": "uint8",
          "name": "",
          "type": "uint8"
        }
      ],
      "name": "transactions",
      "outputs": [
        {
          "internalType": "uint8",
          "name": "id",
          "type": "uint8"
        },
        {
          "internalType": "address",
          "name": "recipient",
          "type": "address"
        },
        {
          "internalType": "uint256",
          "name": "amount",
          "type": "uint256"
        },
        {
          "internalType": "address",
          "name": "sender",
          "type": "address"
        },
        {
          "internalType": "address",
          "name": "tokenAddress",
          "type": "address"
        },
        {
          "internalType": "uint256",
          "name": "transactionTime",
          "type": "uint256"
        },
        {
          "internalType": "uint8",
          "name": "numberOfApproval",
          "type": "uint8"
        },
        {
          "internalType": "bool",
          "name": "isCompleted",
          "type": "bool"
        },
        {
          "internalType": "uint8",
          "name": "proposedQuorom",
          "type": "uint8"
        },
        {
          "internalType": "address",
          "name": "newSigner",
          "type": "address"
        },
        {
          "internalType": "enum MultiSig.TrxType",
          "name": "trxType",
          "type": "uint8"
        }
      ],
      "stateMutability": "view",
      "type": "function"
    },
    {
      "inputs": [
        {
          "internalType": "address",
          "name": "_recipient",
          "type": "address"
        },
        {
          "internalType": "uint256",
          "name": "_amount",
          "type": "uint256"
        },
        {
          "internalType": "address",
          "name": "_tokenAddress",
          "type": "address"
        }
      ],
      "name": "transfer",
      "outputs": [],
      "stateMutability": "nonpayable",
      "type": "function"
    },
    {
      "inputs": [],
      "name": "trxId",
      "outputs": [
        {
          "internalType": "uint8",
          "name": "",
          "type": "uint8"
        }
      ],
      "stateMutability": "view",
      "type": "function"
    },
    {
      "inputs": [
        {
          "internalType": "uint8",
          "name": "newQorum",
          "type": "uint8"
        }
      ],
      "name": "updateQorum",
      "outputs": [],
      "stateMutability": "nonpayable",
      "type": "function"
    },
    {
      "inputs": [
        {
          "internalType": "uint256",
          "name": "_amount",
          "type": "uint256"
        },
        {
          "internalType": "address",
          "name": "_tokenAddress",
          "type": "address"
        }
      ],
      "name": "withdraw",
      "outputs": [],
      "stateMutability": "nonpayable",
      "type": "function"
    }
  ],
  "bytecode": "0x60806040523480156200001157600080fd5b506040516200247c3803806200247c8339818101604052810190620000379190620006d5565b600160008190555060018260ff161162000088576040517f08c379a00000000000000000000000000000000000000000000000000000000081526004016200007f906200079c565b60405180910390fd5b8060019080519060200190620000a0929190620003fb565b5060005b81518160ff1610156200025c576000828260ff1681518110620000cc57620000cb620007be565b5b60200260200101519050600073ffffffffffffffffffffffffffffffffffffffff168173ffffffffffffffffffffffffffffffffffffffff16036200013d576040517f510fbaea00000000000000000000000000000000000000000000000000000000815260040160405180910390fd5b600360008273ffffffffffffffffffffffffffffffffffffffff1673ffffffffffffffffffffffffffffffffffffffff16815260200190815260200160002060009054906101000a900460ff1615620001cd576040517f08c379a0000000000000000000000000000000000000000000000000000000008152600401620001c4906200083d565b60405180910390fd5b600160036000858560ff1681518110620001ec57620001eb620007be565b5b602002602001015173ffffffffffffffffffffffffffffffffffffffff1673ffffffffffffffffffffffffffffffffffffffff16815260200190815260200160002060006101000a81548160ff02191690831515021790555050808062000253906200088e565b915050620000a4565b508051600260016101000a81548160ff021916908360ff160217905550600360003373ffffffffffffffffffffffffffffffffffffffff1673ffffffffffffffffffffffffffffffffffffffff16815260200190815260200160002060009054906101000a900460ff166200035d576001600360003373ffffffffffffffffffffffffffffffffffffffff1673ffffffffffffffffffffffffffffffffffffffff16815260200190815260200160002060006101000a81548160ff0219169083151502179055506001600260018282829054906101000a900460ff16620003449190620008bc565b92506101000a81548160ff021916908360ff1602179055505b60008260ff16111580620003855750600260019054906101000a900460ff1660ff168260ff16115b15620003bd576040517fba7ecb4d00000000000000000000000000000000000000000000000000000000815260040160405180910390fd5b81600260006101000a81548160ff021916908360ff16021790555060016002806101000a81548160ff021916908360ff1602179055505050620008f8565b82805482825590600052602060002090810192821562000477579160200282015b82811115620004765782518260006101000a81548173ffffffffffffffffffffffffffffffffffffffff021916908373ffffffffffffffffffffffffffffffffffffffff160217905550916020019190600101906200041c565b5b5090506200048691906200048a565b5090565b5b80821115620004a55760008160009055506001016200048b565b5090565b6000604051905090565b600080fd5b600080fd5b600060ff82169050919050565b620004d581620004bd565b8114620004e157600080fd5b50565b600081519050620004f581620004ca565b92915050565b600080fd5b6000601f19601f8301169050919050565b7f4e487b7100000000000000000000000000000000000000000000000000000000600052604160045260246000fd5b6200054b8262000500565b810181811067ffffffffffffffff821117156200056d576200056c62000511565b5b80604052505050565b600062000582620004a9565b905062000590828262000540565b919050565b600067ffffffffffffffff821115620005b357620005b262000511565b5b602082029050602081019050919050565b600080fd5b600073ffffffffffffffffffffffffffffffffffffffff82169050919050565b6000620005f682620005c9565b9050919050565b6200060881620005e9565b81146200061457600080fd5b50565b6000815190506200062881620005fd565b92915050565b6000620006456200063f8462000595565b62000576565b905080838252602082019050602084028301858111156200066b576200066a620005c4565b5b835b8181101562000698578062000683888262000617565b8452602084019350506020810190506200066d565b5050509392505050565b600082601f830112620006ba57620006b9620004fb565b5b8151620006cc8482602086016200062e565b91505092915050565b60008060408385031215620006ef57620006ee620004b3565b5b6000620006ff85828601620004e4565b925050602083015167ffffffffffffffff811115620007235762000722620004b8565b5b6200073185828601620006a2565b9150509250929050565b600082825260208201905092915050565b7f51756f72756d206d7573742062652067726561746572207468616e2031000000600082015250565b600062000784601d836200073b565b915062000791826200074c565b602082019050919050565b60006020820190508181036000830152620007b78162000775565b9050919050565b7f4e487b7100000000000000000000000000000000000000000000000000000000600052603260045260246000fd5b7f5369676e657220616c7265616479206578697374000000000000000000000000600082015250565b6000620008256014836200073b565b91506200083282620007ed565b602082019050919050565b60006020820190508181036000830152620008588162000816565b9050919050565b7f4e487b7100000000000000000000000000000000000000000000000000000000600052601160045260246000fd5b60006200089b82620004bd565b915060ff8203620008b157620008b06200085f565b5b600182019050919050565b6000620008c982620004bd565b9150620008d683620004bd565b9250828201905060ff811115620008f257620008f16200085f565b5b92915050565b611b7480620009086000396000f3fe608060405234801561001057600080fd5b506004361061009d5760003560e01c8063558b6b2311610066578063558b6b23146101445780638dc34b2f14610162578063dbba0f011461019c578063dcd7fce4146101b8578063e460a30c146101d65761009d565b8062f714ce146100a25780630cc668c5146100be5780632079fb9a146100dc5780634fe325de1461010c57806354d9d61414610128575b600080fd5b6100bc60048036038101906100b791906116a6565b6101f2565b005b6100c661059a565b6040516100d39190611702565b60405180910390f35b6100f660048036038101906100f1919061171d565b6105ad565b6040516101039190611759565b60405180910390f35b610126600480360381019061012191906117a0565b6105ec565b005b610142600480360381019061013d91906117a0565b610897565b005b61014c610d5c565b6040516101599190611702565b60405180910390f35b61017c600480360381019061017791906117a0565b610d6d565b6040516101939b9a9998979695949392919061186e565b60405180910390f35b6101b660048036038101906101b19190611919565b610e88565b005b6101c06112df565b6040516101cd9190611702565b60405180910390f35b6101f060048036038101906101eb919061196c565b6112f2565b005b600073ffffffffffffffffffffffffffffffffffffffff163373ffffffffffffffffffffffffffffffffffffffff1603610258576040517f510fbaea00000000000000000000000000000000000000000000000000000000815260040160405180910390fd5b60008214806102df57508073ffffffffffffffffffffffffffffffffffffffff166370a08231306040518263ffffffff1660e01b815260040161029b9190611759565b602060405180830381865afa1580156102b8573d6000803e3d6000fd5b505050506040513d601f19601f820116820180604052508101906102dc91906119ae565b82115b15610316576040517ff4d678b800000000000000000000000000000000000000000000000000000000815260040160405180910390fd5b60006006600060028054906101000a900460ff1660ff1660ff168152602001908152602001600020905060008160070160156101000a81548160ff02191690836002811115610368576103676117f7565b5b0217905550828160010181905550818160030160006101000a81548173ffffffffffffffffffffffffffffffffffffffff021916908373ffffffffffffffffffffffffffffffffffffffff160217905550308160020160006101000a81548173ffffffffffffffffffffffffffffffffffffffff021916908373ffffffffffffffffffffffffffffffffffffffff160217905550338160000160016101000a81548173ffffffffffffffffffffffffffffffffffffffff021916908373ffffffffffffffffffffffffffffffffffffffff16021790555042816004018190555060018160050160008282829054906101000a900460ff166104699190611a0a565b92506101000a81548160ff021916908360ff16021790555080600601339080600181540180825580915050600190039060005260206000200160009091909190916101000a81548173ffffffffffffffffffffffffffffffffffffffff021916908373ffffffffffffffffffffffffffffffffffffffff1602179055506001600460003373ffffffffffffffffffffffffffffffffffffffff1673ffffffffffffffffffffffffffffffffffffffff168152602001908152602001600020600060028054906101000a900460ff1660ff16815260200190815260200160002060006101000a81548160ff02191690831515021790555060016002808282829054906101000a900460ff1661057d9190611a0a565b92506101000a81548160ff021916908360ff160217905550505050565b600260019054906101000a900460ff1681565b600181815481106105bd57600080fd5b906000526020600020016000915054906101000a900473ffffffffffffffffffffffffffffffffffffffff1681565b600360003373ffffffffffffffffffffffffffffffffffffffff1673ffffffffffffffffffffffffffffffffffffffff16815260200190815260200160002060009054906101000a900460ff1661066f576040517f3466b99300000000000000000000000000000000000000000000000000000000815260040160405180910390fd5b60008160ff161115806106965750600260019054906101000a900460ff1660ff168160ff16115b156106cd576040517fba7ecb4d00000000000000000000000000000000000000000000000000000000815260040160405180910390fd5b6000600160028054906101000a900460ff166106e99190611a0a565b90506000600660008360ff1660ff168152602001908152602001600020905060018160070160156101000a81548160ff021916908360028111156107305761072f6117f7565b5b0217905550828160070160006101000a81548160ff021916908360ff16021790555060018160050160008282829054906101000a900460ff166107739190611a0a565b92506101000a81548160ff021916908360ff16021790555080600601339080600181540180825580915050600190039060005260206000200160009091909190916101000a81548173ffffffffffffffffffffffffffffffffffffffff021916908373ffffffffffffffffffffffffffffffffffffffff1602179055506001600560003373ffffffffffffffffffffffffffffffffffffffff1673ffffffffffffffffffffffffffffffffffffffff16815260200190815260200160002060008460ff16815260200190815260200160002060006101000a81548160ff02191690831515021790555060016002808282829054906101000a900460ff1661087a9190611a0a565b92506101000a81548160ff021916908360ff160217905550505050565b61089f6115bd565b60008160ff16036108dc576040517f500a07ce00000000000000000000000000000000000000000000000000000000815260040160405180910390fd5b6000600660008360ff1660ff16815260200190815260200160002090508060050160019054906101000a900460ff1615610942576040517fccf17ebc00000000000000000000000000000000000000000000000000000000815260040160405180910390fd5b600460003373ffffffffffffffffffffffffffffffffffffffff1673ffffffffffffffffffffffffffffffffffffffff16815260200190815260200160002060008360ff16815260200190815260200160002060009054906101000a900460ff16156109da576040517f1e5433fd00000000000000000000000000000000000000000000000000000000815260040160405180910390fd5b60018160050160008282829054906101000a900460ff166109fb9190611a0a565b92506101000a81548160ff021916908360ff160217905550600260009054906101000a900460ff1660ff168160050160009054906101000a900460ff1660ff1610610d505760006002811115610a5457610a536117f7565b5b8160070160159054906101000a900460ff166002811115610a7857610a776117f7565b5b03610c4e5780600101548160030160009054906101000a900473ffffffffffffffffffffffffffffffffffffffff1673ffffffffffffffffffffffffffffffffffffffff166370a08231306040518263ffffffff1660e01b8152600401610adf9190611759565b602060405180830381865afa158015610afc573d6000803e3d6000fd5b505050506040513d601f19601f82011682018060405250810190610b2091906119ae565b1015610b61576040517f08c379a0000000000000000000000000000000000000000000000000000000008152600401610b5890611a9c565b60405180910390fd5b60018160050160016101000a81548160ff0219169083151502179055508060030160009054906101000a900473ffffffffffffffffffffffffffffffffffffffff1673ffffffffffffffffffffffffffffffffffffffff1663a9059cbb8260000160019054906101000a900473ffffffffffffffffffffffffffffffffffffffff1683600101546040518363ffffffff1660e01b8152600401610c05929190611abc565b6020604051808303816000875af1158015610c24573d6000803e3d6000fd5b505050506040513d601f19601f82011682018060405250810190610c489190611b11565b50610d32565b60016002811115610c6257610c616117f7565b5b8160070160159054906101000a900460ff166002811115610c8657610c856117f7565b5b03610cbc578060070160009054906101000a900460ff16600260006101000a81548160ff021916908360ff160217905550610d31565b600280811115610ccf57610cce6117f7565b5b8160070160159054906101000a900460ff166002811115610cf357610cf26117f7565b5b03610d30576001600260018282829054906101000a900460ff16610d179190611a0a565b92506101000a81548160ff021916908360ff1602179055505b5b5b60018160050160016101000a81548160ff0219169083151502179055505b50610d59611603565b50565b60028054906101000a900460ff1681565b60066020528060005260406000206000915090508060000160009054906101000a900460ff16908060000160019054906101000a900473ffffffffffffffffffffffffffffffffffffffff16908060010154908060020160009054906101000a900473ffffffffffffffffffffffffffffffffffffffff16908060030160009054906101000a900473ffffffffffffffffffffffffffffffffffffffff16908060040154908060050160009054906101000a900460ff16908060050160019054906101000a900460ff16908060070160009054906101000a900460ff16908060070160019054906101000a900473ffffffffffffffffffffffffffffffffffffffff16908060070160159054906101000a900460ff1690508b565b600073ffffffffffffffffffffffffffffffffffffffff168373ffffffffffffffffffffffffffffffffffffffff1603610eee576040517f510fbaea00000000000000000000000000000000000000000000000000000000815260040160405180910390fd5b600360003373ffffffffffffffffffffffffffffffffffffffff1673ffffffffffffffffffffffffffffffffffffffff16815260200190815260200160002060009054906101000a900460ff16610f71576040517f3466b99300000000000000000000000000000000000000000000000000000000815260040160405180910390fd5b600082111580610ff957508073ffffffffffffffffffffffffffffffffffffffff166370a08231306040518263ffffffff1660e01b8152600401610fb59190611759565b602060405180830381865afa158015610fd2573d6000803e3d6000fd5b505050506040513d601f19601f82011682018060405250810190610ff691906119ae565b82115b15611030576040517ff4d678b800000000000000000000000000000000000000000000000000000000815260040160405180910390fd5b60006006600060028054906101000a900460ff1660ff1660ff168152602001908152602001600020905060008160070160156101000a81548160ff02191690836002811115611082576110816117f7565b5b0217905550828160010181905550818160030160006101000a81548173ffffffffffffffffffffffffffffffffffffffff021916908373ffffffffffffffffffffffffffffffffffffffff160217905550338160020160006101000a81548173ffffffffffffffffffffffffffffffffffffffff021916908373ffffffffffffffffffffffffffffffffffffffff160217905550838160000160016101000a81548173ffffffffffffffffffffffffffffffffffffffff021916908373ffffffffffffffffffffffffffffffffffffffff16021790555060028054906101000a900460ff168160000160006101000a81548160ff021916908360ff16021790555042816004018190555060018160050160008282829054906101000a900460ff166111ad9190611a0a565b92506101000a81548160ff021916908360ff16021790555080600601339080600181540180825580915050600190039060005260206000200160009091909190916101000a81548173ffffffffffffffffffffffffffffffffffffffff021916908373ffffffffffffffffffffffffffffffffffffffff1602179055506001600460003373ffffffffffffffffffffffffffffffffffffffff1673ffffffffffffffffffffffffffffffffffffffff168152602001908152602001600020600060028054906101000a900460ff1660ff16815260200190815260200160002060006101000a81548160ff02191690831515021790555060016002808282829054906101000a900460ff166112c19190611a0a565b92506101000a81548160ff021916908360ff16021790555050505050565b600260009054906101000a900460ff1681565b6001600360008373ffffffffffffffffffffffffffffffffffffffff1673ffffffffffffffffffffffffffffffffffffffff16815260200190815260200160002060006101000a81548160ff021916908315150217905550600360003373ffffffffffffffffffffffffffffffffffffffff1673ffffffffffffffffffffffffffffffffffffffff16815260200190815260200160002060009054906101000a900460ff166113cd576040517f3466b99300000000000000000000000000000000000000000000000000000000815260040160405180910390fd5b6000600160028054906101000a900460ff166113e99190611a0a565b90506000600660008360ff1660ff168152602001908152602001600020905060028160070160156101000a81548160ff021916908360028111156114305761142f6117f7565b5b0217905550828160070160016101000a81548173ffffffffffffffffffffffffffffffffffffffff021916908373ffffffffffffffffffffffffffffffffffffffff16021790555060018160050160008282829054906101000a900460ff166114999190611a0a565b92506101000a81548160ff021916908360ff16021790555080600601339080600181540180825580915050600190039060005260206000200160009091909190916101000a81548173ffffffffffffffffffffffffffffffffffffffff021916908373ffffffffffffffffffffffffffffffffffffffff1602179055506001600560003373ffffffffffffffffffffffffffffffffffffffff1673ffffffffffffffffffffffffffffffffffffffff16815260200190815260200160002060008460ff16815260200190815260200160002060006101000a81548160ff02191690831515021790555060016002808282829054906101000a900460ff166115a09190611a0a565b92506101000a81548160ff021916908360ff160217905550505050565b6002600054036115f9576040517f3ee5aeb500000000000000000000000000000000000000000000000000000000815260040160405180910390fd5b6002600081905550565b6001600081905550565b600080fd5b6000819050919050565b61162581611612565b811461163057600080fd5b50565b6000813590506116428161161c565b92915050565b600073ffffffffffffffffffffffffffffffffffffffff82169050919050565b600061167382611648565b9050919050565b61168381611668565b811461168e57600080fd5b50565b6000813590506116a08161167a565b92915050565b600080604083850312156116bd576116bc61160d565b5b60006116cb85828601611633565b92505060206116dc85828601611691565b9150509250929050565b600060ff82169050919050565b6116fc816116e6565b82525050565b600060208201905061171760008301846116f3565b92915050565b6000602082840312156117335761173261160d565b5b600061174184828501611633565b91505092915050565b61175381611668565b82525050565b600060208201905061176e600083018461174a565b92915050565b61177d816116e6565b811461178857600080fd5b50565b60008135905061179a81611774565b92915050565b6000602082840312156117b6576117b561160d565b5b60006117c48482850161178b565b91505092915050565b6117d681611612565b82525050565b60008115159050919050565b6117f1816117dc565b82525050565b7f4e487b7100000000000000000000000000000000000000000000000000000000600052602160045260246000fd5b60038110611837576118366117f7565b5b50565b600081905061184882611826565b919050565b60006118588261183a565b9050919050565b6118688161184d565b82525050565b600061016082019050611884600083018e6116f3565b611891602083018d61174a565b61189e604083018c6117cd565b6118ab606083018b61174a565b6118b8608083018a61174a565b6118c560a08301896117cd565b6118d260c08301886116f3565b6118df60e08301876117e8565b6118ed6101008301866116f3565b6118fb61012083018561174a565b61190961014083018461185f565b9c9b505050505050505050505050565b6000806000606084860312156119325761193161160d565b5b600061194086828701611691565b935050602061195186828701611633565b925050604061196286828701611691565b9150509250925092565b6000602082840312156119825761198161160d565b5b600061199084828501611691565b91505092915050565b6000815190506119a88161161c565b92915050565b6000602082840312156119c4576119c361160d565b5b60006119d284828501611999565b91505092915050565b7f4e487b7100000000000000000000000000000000000000000000000000000000600052601160045260246000fd5b6000611a15826116e6565b9150611a20836116e6565b9250828201905060ff811115611a3957611a386119db565b5b92915050565b600082825260208201905092915050565b7f496e73756666696369656e742046756e64730000000000000000000000000000600082015250565b6000611a86601283611a3f565b9150611a9182611a50565b602082019050919050565b60006020820190508181036000830152611ab581611a79565b9050919050565b6000604082019050611ad1600083018561174a565b611ade60208301846117cd565b9392505050565b611aee816117dc565b8114611af957600080fd5b50565b600081519050611b0b81611ae5565b92915050565b600060208284031215611b2757611b2661160d565b5b6000611b3584828501611afc565b9150509291505056fea264697066735822122084f59cc95e9c28ab52176143308047e66bbfc2a2623d7c90c3bdab493a5fd8ec64736f6c63430008180033",
  "linkReferences": {},
  "deployedLinkReferences": {}
}